S01100004D7950726F6A6563742E7372656376
S1130000C2C00000DDC00000DBC00000D9C0000099
S1130010D7C00000D5C00000D3C00000D1C000008C
S1130020CFC00000CDC00000CBC00000C9C000009C
S1130030C7C00000C5C00000C3C00000C1C00000AC
S1130040BFC00000BDC00000BBC00000B9C00000BC
S1130050B7C00000B5C00000B3C00000B1C00000CC
S1130060AFC00000ADC00000ABC00000A9C00000DC
S1130070A7C00000A5C00000A3C00000A1C00000EC
S11300809FC000009DC000009BC0000000407A108B
S1130090F35A00A0724E18090010A5D4E80000E835
S11300A07648170000E40B54020000CA9A3B000093
S11300B000E1F505000080969800000040420F0022
S11300C00000A08601000000102700000000E803E3
S11300D0000000006400000000000A0000000000AE
S11300E00100000000002C76D888DC674F0823DF6D
S11300F0C1DFAE59E1B1B796E5E3E453C63AE65140
S1130100997696E8E6C28426EB898C9B62ED407C66
S11301106FFCEFBC9C9F40F2BAA56FA5F490055A02
S11301202AF75C936B6CF9676DC11BFCE0E40D4727
S1130130FEF520E6B500D0ED902E0300943577054A
S11301400080841E080000204E0A000000C80C3302
S11301503333330F986E12831141EF8D2114893B91
S1130160E65516CFFEE6DB18D1844B381BF77C1D11
S1130170901DA4BBE424203284725E228100C9F164
S113018024ECA1E53D2711241FBECFEFD0E1DEBF53
S1130190CDBF11E0A0E0B1E0ECEDFCE000E00BBF6E
S11301A002C007900D92A836B107D9F721E0A8E65E
S11301B0B1E001C01D92AB36B207E1F73DD18CC569
S11301C01FCF379A309A319A32983D983E9A3F9889
S11301D0089597B1907E97B997B1892B87B9369ACC
S11301E03699FECF84B195B10895E82FF0E061838C
S11301F00895E82FF0E0828121E030E001C0220F71
S11302006A95EAF7282B22830895E82FF0E082818B
S113021021E030E001C0220F6A95EAF720952823F7
S113022022830895E82FF0E0808190E002C0959544
S113023087956A95E2F781700895E82FF0E062836C
S11302400895CF93C82F6FE0D0DF6FEF8C2FF5DFC9
S11302501092690160916901643090F58C2FD5DFAB
S11302601092680160916801643000F56C5F8C2F16
S1130270D9DF811115C0609168016C5F8C2FD2DFCA
S11302808823C9F3E09169018091680194E0E99FB2
S1130290F0011124E050FF4FE80FF11D808111C0DF
S11302A0809168018F5F80936801DCCF6091690160
S11302B08C2F9FDF809169018F5F80936901CACF82
S11302C080E0CF91089598B39F70282F207F922BC0
S11302D098BBC298C39A0000C398E3EFF1E031974A
S11302E0F1F700C0000028B32F70F0E18F9FC00128
S11302F01124822B88BBC39A0000C39881EE94E03A
S11303000197F1F700C00000089587B38C6087BBA4
S11303108FEF87BB87E893E10197F1F700C00000F6
S1130320C39800C083E3CFDF82E3CDDF88E2CBDF75
S113033081E0C9DF82E0C7DF8EE0C5DF86E0C3CF9E
S113034098B39F70282F207F922B98BBC29AC39A90
S11303500000C398E9EFF0E03197F1F700C0000026
S113036028B32F70F0E18F9FC0011124822B88BB2A
S1130370C39A0000C39881EE94E00197F1F700C09E
S113038000000895CF93DF93EC0110926A018091ED
S11303906A01FE01E80FF11D8081882339F0D0DF66
S11303A080916A018F5F80936A01F1CFDF91CF91D1
S11303B0089581E088DF80E886CFCF93DF93EA0158
S11303C0811105C0603150F4862F806806C08130E9
S11303D029F4603118F4862F806C75DFCE01DF912B
S11303E0CF91D0CF0F931F93CF938C01C0E080E3C4
S11303F028DF8D3331F4F8011382CF911F910F91CF
S11304000895883571F4CC2381F080E15CDF80E0CD
S113041097DF80E158DFC150F801EC0FF11D108225
S1130420E6CF882321F3C33010F7F801EC0FF11D58
S1130430808386DFCF5FDBCFCF93DF93CDB7DEB78B
S11304402A970FB6F894DEBF0FBECDBF84B3836086
S113045084BB80E090E0B5DE58DF40E151E064E029
S113046080E0ABDF4AE151E062E081E0A6DF2FEFFC
S11304703DE389E4215030408040E1F700C00000B2
S113048098DF47E251E060E080E097DF46E351E027
S113049060E081E092DFCE010796A4DF8ADF46E3C5
S11304A051E060E080E089DFCE0107966BDF81E4F4
S11304B091E068DF44E451E060E081E07EDF80E3C6
S11304C0C0DE8823E1F38D3311F073DFC6CF71DF13
S11304D046E351E060E080E070DFCE01079652DF32
S11304E081E491E04FDF45E551E060E081E065DFC4
S11304F084EFE82EFF24F39480E06BDE9C012E9DB4
S1130500C0012F9D900D3E9D900D1124BC0180E0F3
S113051090E037D020E030E040E85AE373D04B015C
S11305205C018E010F5F1F4F22E044E043D1A8011C
S113053067E081E042DF81E491E024DFCE010796A9
S113054058D1BC01990F880B990B1DD09B01AC01AC
S1130550C501B40153D018161CF4A99AA89802C076
S1130560A89AA9983FEF8DE399E4315080409040D8
S1130570E1F700C000004DE551E067E081E01DDFD8
S1130580BBCFE89409C097FB3EF490958095709595
S113059061957F4F8F4F9F4F9923A9F0F92F96E9CB
S11305A0BB279395F695879577956795B795F11140
S11305B0F8CFFAF4BB0F11F460FF1BC06F5F7F4FDD
S11305C08F4F9F4F16C0882311F096E911C07723EF
S11305D021F09EE8872F762F05C0662371F096E8F8
S11305E0862F70E060E02AF09A95660F771F881FC7
S11305F0DAF7880F9695879597F9089566D008F4E9
S11306008FEF08950BD09CC08DD028F092D018F0B5
S1130610952309F07EC083C01124C6C0A2D0A0F3E4
S1130620959FD1F3950F50E0551F629FF001729F83
S1130630BB27F00DB11D639FAA27F00DB11DAA1FA2
S1130640649F6627B00DA11D661F829F2227B00DEF
S1130650A11D621F739FB00DA11D621F839FA00D7A
S1130660611D221F749F3327A00D611D231F849FCA
S1130670600D211D822F762F6A2F11249F57504021
S11306808AF0E1F088234AF0EE0FFF1FBB1F661FBC
S1130690771F881F91505040A9F79E3F510570F075
S11306A038C082C05F3FECF3983EDCF386957795C3
S11306B06795B795F795E7959F5FC1F7FE2B880F70
S11306C0911D9695879597F90895990F0008550FF0
S11306D0AA0BE0E8FEEF16161706E807F907C0F0C4
S11306E012161306E407F50798F0621B730B840BCC
S11306F0950B39F40A2661F0232B242B252B21F4A6
S113070008950A2609F4A140A6958FEF811D811D45
S1130710089597F99F6780E870E060E008959FEF7F
S113072080EC089500240A94161617061806090684
S1130730089500240A941216130614060506089553
S1130740092E0394000C11F4882352F0BB0F40F4DB
S1130750BF2B11F460FF04C06F5F7F4F8F4F9F4F1B
S1130760089557FD9058440F551F59F05F3F71F09D
S11307704795880F97FB991F61F09F3F79F0879504
S11307800895121613061406551FF2CF4695F1DF8D
S113079008C0161617061806991FF1CF869571051D
S11307A0610508940895E894BB2766277727CB0151
S11307B097F90895EF920F931F93CF93DF93E80176
S11307C047FD02C034E001C034E1042E000C550B97
S11307D057FF03C0519541955109E32E022F242F51
S11307E0AE012CD0CE01DF91CF911F910F91EF90EC
S11307F00895FC0188279927E89421912032E9F390
S1130800293010F02E30C8F32B3239F02D3231F468
S1130810689403C00BD0820F911D219120532A307C
S1130820C8F31EF4909581959F4F08957AE0979FA1
S1130830902D879F802D910D112408958F929F9262
S1130840AF92BF92CF92DF92EF92FF920F931F93DA
S1130850CF93DF93CDB7DEB729970FB6F894DEBFF9
S11308600FBECDBF6A01122FB02E2BE3201720F04C
S1130870FF24F394F00E02C02CE3F22E0F2D27E098
S1130880AE014F5F5F4F50D1BC014981842F897005
S1130890813031F0E1FC06C0E0FE06C090E205C004
S11308A09DE203C09BE201C090E05E2D507143FFC6
S11308B03CC0911102C083E001C084E0811718F4A8
S11308C0212F281B01C020E051110BC0F601822FFB
S11308D030E2882319F031938150FBCFC20ED11C32
S11308E020E0992329F0D6019C93F60131966F01FB
S11308F0C6010396E2FE0AC03EE4D6013C9341E4FD
S113090011964C93119712963C9306C03EE6F6015D
S1130910308341E641833283FC01322F40E23323AA
S113092009F442C041933150FACF42FF44C09111BF
S113093002C083E001C084E0811718F4212F281B32
S113094001C020E051110BC0F601822F30E2882350
S113095019F031938150FBCFC20ED11C20E09923B2
S113096029F0D6019C93F60131966F01C6010396D6
S1130970E2FE0BC039E4D6013C933EE411963C936D
S1130980119736E412963C9307C039E6F60130839A
S11309903EE6318336E63283FC01322F40E23323D4
S11309A019F041933150FBCFFC01E20FF11D10828D
S11309B08EEF9FEFA6C021E030E0911102C020E04D
S11309C030E0161617061CF4FB01319602C0E1E074
S11309D0F0E02E0F3F1FBB2021F0EB2DF0E031960D
S11309E002C0E0E0F0E02E0F3F1FE12FF0E02E17F1
S11309F03F071CF4121B212F01C020E08E2D8871AB
S1130A0059F4F601822F30E2882319F03193815092
S1130A10FBCFC20ED11C20E0992329F0D6019C9370
S1130A20F60131966F0151110BC0F601822F90E34C
S1130A30882319F091938150FBCFC20ED11C20E082
S1130A400F2D060F9A81342F307144FF03C0913368
S1130A5009F40150101624F4093018F008E001C01C
S1130A6001E0AB0177FF02C040E050E0FB01E41B72
S1130A70F50BA1E0B0E0AC0FBD1FEA0FFB1F8EE247
S1130A80A82E4B01801A91080B2D10E011950195A9
S1130A9011094F3FBFEF5B0721F4D601AC921196C9
S1130AA06D01641775072CF08416950614F4818182
S1130AB001C080E3415051093196D60111967D0160
S1130AC04017510724F0D6018C936701E2CF6417D5
S1130AD0750739F4963320F4953319F4311101C0B4
S1130AE081E3F6018083F701822F90E2882319F0D5
S1130AF091938150FBCFF701E20FF11D108280E04A
S1130B0090E029960FB6F894DEBF0FBECDBFDF91FB
S1130B10CF911F910F91FF90EF90DF90CF90BF90F6
S1130B20AF909F908F900895283008F027E03327E6
S1130B30DA01990F311D87FD9160009661057105F9
S1130B4039F432602E5F3D9330E32A95E1F708953E
S1130B509F3F30F080387105610509F03C5F3C5FD0
S1130B603D93913008F08068911DDF93CF931F93DC
S1130B700F93FF92EF92192F987F9695E92F9695F0
S1130B809695E90FFF27EA51FF4F99273327EE2463
S1130B90FF24A701E70105900894079428F4360F71
S1130BA0E71EF81E491F511D660F771F881F991FE6
S1130BB00694A1F70590079428F4E70EF81E491F40
S1130BC0561FC11D770F881F991F661F0694A1F732
S1130BD00590079428F4F80E491F561FC71FD11D0E
S1130BE0880F991F661F771F0694A1F70590079435
S1130BF020F4490F561FC71FD81F990F661F771F70
S1130C00881F0694A9F784911095177041F0D69522
S1130C10C79557954795F794E7941A95C1F7ECE86B
S1130C20F0E0689415901591359165919591059032
S1130C307FE27395E118F10A430B560BC90BD009F7
S1130C40C0F7E10CF11E431F561FC91FD01D7EF4CF
S1130C50703311F48A95E6CFE894015030F0080F10
S1130C600AF40027021708F4202F2395022F7A3361
S1130C7028F079E37D932A95E9F710C07D932A95AE
S1130C8089F6069497956795379517951794E11803
S1130C90F10A430B560BC90BD00998F023957E91AA
S1130CA073957A3308F070E37C932013B8F77E9140
S1130CB070617D9330F0839571E37D9370E32A95A1
S1130CC0E1F71124EF90FF900F911F91CF91DF91E5
S10F0CD0992787FD90950895F894FFCFB4
S1130CDC4E303D2B3132332D343536583738392F8D
S1130CEC4175746F6D617469630054656D70204354
S1130CFC6F6E74726F6C00456E7465722054656D02
S1130D0C70205265660054656D70205265663A20F9
S1130D1C002743005072657373203D20746F204389
S1130D2C6F6E742E0054656D70203D2000202020C1
S10B0D3C2020202020200000EB
S9030000FC
