S00C0000426F6F742E7372656384
S21401E00045C0000060C000005EC000005CC00000AB
S21401E0105AC0000058C0000056C0000054C000009E
S21401E02052C0000050C000004EC000004CC00000AE
S21401E0304AC0000048C0000046C0000044C00000BE
S21401E04042C0000040C000003EC000003CC00000CE
S21401E0503AC0000038C0000036C0000034C00000DE
S21401E06032C0000030C000002EC000002CC00000EE
S21401E0702AC0000028C0000026C0000024C00000FE
S21401E08022C0000020C000001EC0000011241FBED8
S21401E090CFEFD0E1DEBFCDBF15E0A0E0B1E0E8EF05
S21401E0A0F6EE01E00BBF02C007900D92A830B10753
S21401E0B0D9F725E0A8E0B5E001C01D92AB30B20764
S21401E0C0E1F702D217C39CCF98B39F70282F207F09
S21401E0D0922B98BBC298C39A0000C398E3EFF1E075
S21401E0E03197F1F700C0000028B32F70F0E18F9F41
S21401E0F0C0011124822B88BBC39A0000C39881EE0D
S21401E10094E00197F1F700C00000089587B38C6092
S21401E11087BB8FEF87BB87E893E10197F1F700C0D4
S21401E1200000C39800C083E3CFDF82E3CDDF88E23F
S21401E130CBDF81E0C9DF82E0C7DF8EE0C5DF86E0A6
S21401E140C3CF98B39F70282F207F922B98BBC29A7B
S21401E150C39A0000C398E9EFF0E03197F1F700C0E9
S21401E160000028B32F70F0E18F9FC0011124822B8D
S21401E17088BBC39A0000C39881EE94E00197F1F73B
S21401E18000C000000895CF93DF93EC0110920A05BA
S21401E19080910A05FE01E80FF11D8081882339F080
S21401E1A0D0DF80910A058F5F80930A05F1CFDF915A
S21401E1B0CF91089581E088DF80E886CFCF93DF9303
S21401E1C0EA01811105C0603150F4862F806806C0CF
S21401E1D0813029F4603118F4862F806C75DFCE010A
S21401E1E0DF91CF91D0CF7F928F929F92AF92BF92C5
S21401E1F0CF92DF92EF92FF920F931F93CF93DF930D
S21401E200FFB6F894E199FECFA0E0B0E0C0E8D0E018
S21401E2108B019C01F3E0EF2EDD24D39485E0C82E1C
S21401E220F80120935B00E0926800E8958091680011
S21401E23080FDFCCF60E070E0FA0170804E5F5F4FBA
S21401E24048015901860E971EA11CB11C319680818A
S21401E25090E0982F8827870D911D0C01F401A0925C
S21401E2605B00D0926800E89511246E5F7F4F6C17B3
S21401E2707D0710F3F80120935B00C0926800E895D3
S21401E2808091680080FDFCCF1196A830B10569F039
S21401E290A730B10519F0C0E8D0E002C0C2E1D0E075
S21401E2A000581F4F2F4F3F4FBBCF81E1809368002F
S21401E2B0E895FFBEDF91CF911F910F91FF90EF90F0
S21401E2C0DF90CF90BF90AF909F908F907F900895F2
S21401E2D02F923F924F925F926F927F928F929F9270
S21401E2E0AF92BF92CF92DF92EF92FF920F931F935E
S21401E2F0CF93DF93CDB7DEB72E970FB6F894DEBF78
S21401E3000FBECDBF2B013C018A019A012F7733271F
S21401E31081E090E0232B11F480E090E09801220F39
S21401E320232F221F330B3195AC01420F531F5C8301
S21401E3304B835FB75F83F894E199FECFC12CD12C54
S21401E340212C312C8B819C81019799878887980194
S21401E350217033273B872A874B815C81241635063B
S21401E36009F493C0488559852416350631F4C80149
S21401E3708C199D099A83898304C020E830E03A838A
S21401E3802983530142018C0C9D1CA11CB11C33E056
S21401E390F401A0925B0030936800E89580916800D4
S21401E3A080FDFCCFE12CF12C89819A81E816F906D3
S21401E3B008F059C04A855B85452BB9F457D18D8342
S21401E3C0809108059091090501969093090580931F
S21401E3D008054CD18C878091080590910905019616
S21401E3E0909309058093080510C00130110531F797
S21401E3F03DD18D83809108059091090502969093F1
S21401E4000905809308055FEF5C879D81892F90E061
S21401E4109E838D8324D18DE090E021D13C85232FEE
S21401E42030E03E872D87C9011AD18DE090E017D1E3
S21401E430D501C4018E0D9F1DA11DB11D4D855E85A3
S21401E440542F44272D813E81420F531F31E00A018C
S21401E450FC01A0935B0030936800E895112442E02C
S21401E460E40EF11CA1CF95E0F401A0925B0090931D
S21401E4706800E8958091680080FDFCCF2FEF221A96
S21401E480320A30E8C30ED11C67CF81E18093680061
S21401E490E8955F815FBF2E960FB6F894DEBF0FBE7C
S21401E4A0CDBFDF91CF911F910F91FF90EF90DF903D
S21401E4B0CF90BF90AF909F908F907F906F905F901E
S21401E4C04F903F902F90089521DE83E390E0B2D0E5
S21401E4D081E08ABB80E190E0DFD08F3F09F04EC03B
S21401E4E082E994E050DE42EA54E063E081E066DED1
S21401E4F02FEF3DE349E4215030404040E1F700C0B2
S21401E50000008AE090E0D89A2FEF34E34CE02150E7
S21401E51030404040E1F700C00000D8982FEF34E3C8
S21401E5204CE0215030404040E1F700C00000019728
S21401E53051F760E080E190E0BCD040E051E060E05F
S21401E54070E0CB0150DE36DE8FE19EE40197F1F7F5
S21401E55000C000008DEA94E016DE4DEB54E062E068
S21401E56081E02CDE9FEF2DE339E4915020403040CE
S21401E570E1F700C000001EDE0C94000086E090E08B
S21401E5808BD0863409F048C060E386E090E091D0F5
S21401E5908FE19EE40197F1F700C000000BDE8FE1EA
S21401E5A09EE40197F1F700C000008AEC94E0EBDDF1
S21401E5B087ED94E05FD09FEF23ED30E3915020404C
S21401E5C03040E1F700C0000083E545D084E090E0EC
S21401E5D06BD0AC0160E070E0CB017ADEEBDD4FEF93
S21401E5E080E792E0415080409040E1F700C0000093
S21401E5F087EF94E0C8DD4DEB54E062E081E0DEDDBC
S21401E6002FEF33ED40E3215030404040E1F700C0AA
S21401E6100000D0DD0C9400008FEF99E628E18150D0
S21401E62090402040E1F700C000000C94000080E01C
S21401E63090E008959093900089B938E13AB926E0C0
S21401E64020939500909398008093990030939A00B8
S21401E65020939D0008955D9BFECF8CB908959091FF
S21401E6609B0095FFFCCF80939C0008955F9BFECF97
S21401E6708CB108950F931F93CF938C01C0E0F801DE
S21401E680EC0FF11D8081882319F0E9DFCF5FF7CF0A
S21401E690CF911F910F910895E199FECF9FBB8EBB3D
S21401E6A0E09A99278DB30895A8E1B0E042E050E0E2
S21401E6B013C0262FE199FECF9FBB8EBBE09A019730
S21401E6C00DB2021631F02DBB0FB6F894E29AE19A1C
S21401E6D00FBE0895DC01CB01FC01E199FECF06C017
S21401E6E0FFBBEEBBE09A31960DB20D924150504001
S20C01E6F0B8F70895F894FFCF76
S21401E6F845C0000060C000005EC000005CC00000AD
S21401E7085AC0000058C0000056C0000054C000009F
S21401E71852C0000050C000004EC000004CC00000AF
S21401E7284AC0000048C0000046C0000044C00000BF
S21401E738F9C0000040C00000B9C000003CC000009D
S21401E7483AC0000038C0000036C0000034C00000DF
S21401E75832C0000030C000002EC000002CC00000EF
S21401E7682AC0000028C0000026C0000024C00000FF
S21401E77822C0000020C000001EC0000011241FBED9
S21401E788CFEFD0E1DEBFCDBF11E0A0E0B1E0E6E714
S21401E798F3E000E00BBF02C007900D92AC31B10761
S21401E7A8D9F721E0ACE1B1E001C01D92AA32B20767
S21401E7B8E1F7D4D056C19CCF98B39F70282F207FFD
S21401E7C8922B98BBC298C39A0000C398E3EFF1E076
S21401E7D83197F1F700C0000028B32F70F0E18F9F42
S21401E7E8C0011124822B88BBC39A0000C39881EE0E
S21401E7F894E00197F1F700C00000089587B38C6094
S21401E80887BB8FEF87BB87E893E10197F1F700C0D5
S21401E8180000C39800C083E3CFDF82E3CDDF88E240
S21401E828CBDF81E0C9DF82E0C7DF8EE0C5DF86E0A7
S21401E838C3CF98B39F70282F207F922B98BBC29A7C
S21401E848C39A0000C398E9EFF0E03197F1F700C0EA
S21401E858000028B32F70F0E18F9FC0011124822B8E
S21401E86888BBC39A0000C39881EE94E00197F1F73C
S21401E87800C000000895CF93DF93EC0110922501A4
S21401E88880912501FE01E80FF11D8081882339F06A
S21401E898D0DF809125018F5F80932501F1CFDF912D
S21401E8A8CF91089581E088DF80E886CF1F920F9286
S21401E8B80FB60F9211240BB60F922F938F939F9337
S21401E8C8EF93FF9380911D0190911E018F30910562
S21401E8D8E8F42CB18430910520F4FC01EA5DFE4F82
S21401E8E80BC02C3631F488E18AB981E08093240183
S21401E8F804C0FC01E55EFE4F208380911D019091C6
S21401E9081E01019690931E0180931D01FF91EF91C0
S21401E9189F918F912F910F900BBE0F900FBE0F9066
S21401E9281F9018951F920F920FB60F9211248F936E
S21401E9389F9380911C018F5F80931C018F3031F467
S21401E9489BB388E089278BBB10921C0112BE9F914E
S21401E9588F910F900FBE0F901F90189586E08ABB77
S21401E9684DDF80E091E087DF2FEF83ED90E32150C4
S21401E97880409040E1F700C0000083E390E02ED08D
S21401E9887894C2E08BB38C278BBB2FEF84E39CE093
S21401E998215080409040E1F700C00000809124019A
S21401E9A8813081F7109224018EE091E064DF8FE1D7
S21401E9B891E01DD0BC0184E090E04FD066E470E0A1
S21401E9C886E090E039D0F8946DDF8FE19EE40197F8
S21401E9D8F1F700C000000C9400F0D4CF909390009B
S21401E9E889B988E98AB986E0809395000895FC017B
S21401E9F888279927E89421912032E9F3293010F0E5
S21401EA082E30C8F32B3239F02D3231F4689403C016
S21401EA180BD0820F911D219120532A30C8F31EF482
S21401EA28909581959F4F08957AE0979F902D879F9F
S21401EA38802D910D11240895262FE199FECF9FBBB5
S21401EA488EBBE09A01970DB2021631F02DBB0FB6B8
S21401EA58F894E29AE19A0FBE08950196272FEDDF02
S21401EA68EBCFF894FFCF4669726D776172652056D1
S21401EA78302E30004669726D776172652056302EE9
S21401EA88320020204669726D776172652056302EF5
S21401EA9830004C6F61646564204E6F77004669727A
S21401EAA86D77617265204C6F6164656400537563A8
S21401EAB86365737366756C6C7900464F54412050D4
S21401EAC8726F63657373004E6577204669726D775A
S21401EAD8617265206973204C6F61646564204E6FAE
S21401EAE877203A200D0A004669726D7761726520B3
S20C01EAF8557064617465640049
S80401E0001A
